:100000000C943A000C9444000C9444000C9444006A
:100010000C9444000C9444000C9444000C94440050
:100020000C9444000C9444000C9444000C94440040
:100030000C9444000C9444000C9444000C94440030
:100040000C9444000C9444000C9444000C94440020
:100050000C9444000C9444000C9444000C94440010
:100060000C9444000C9444000C9444000C94440000
:100070000C94440011241FBECFEFD2E0DEBFCDBFF1
:100080000E9450000C945C030C9400002AEF30E0B6
:1000900004C0F9013197F1F701970097D1F708955E
:1000A00087B1846F87B98AB18F678AB98FEF84B9B6
:1000B0002AEF30E088B18B7088B98BB180788BB92A
:1000C00085B115B8429A599A5B9A5D9A289A2A9AEC
:1000D0002C9A2E9A479A459A80E197E2F901319736
:1000E000F1F70197D9F788B18B7088B98BB1807817
:1000F0008BB985B115B8589A5A9A5C9A5E9A299A22
:100100002B9A2D9A2F9A469A449A80E197E2F90108
:100110003197F1F70197D9F7CDCFABE0B0E0E3E944
:10012000F0E00C9425034C012B015A01FC011782CD
:100130001682838181FD03C06FEF7FEFCDC11E0169
:100140000894211C311C9FE3692EF4013381F201D4
:1001500033FD859133FF81912F01882309F4B9C1C3
:10016000853239F433FD859133FF81912F0185323A
:1001700029F490E0B4010E948702E7CF982FFF2472
:10018000EE247724FFE1FF15D0F09B3269F09C321A
:1001900028F4903259F0933291F40EC09D3249F018
:1001A000903369F441E02CC052E0F52A84E0F82A4B
:1001B00030C098E0F92A2DC0E0E1FE2A2AC0F7FC01
:1001C00031C0292F20532A30B0F4F6FE09C0872D04
:1001D00090E06AE070E00E941303782E720E19C05E
:1001E0008E2D90E06AE070E00E941303E82EE20E8C
:1001F000F0E2FF2A0EC09E3229F4F6FC6AC140E408
:10020000F42A07C09C3619F450E8F52A02C0983643
:1002100049F4F20133FD959133FF91912F01992318
:1002200009F0B0CF892F8554833018F08052833085
:1002300030F444E050E0A40EB51E69820FC093363E
:1002400031F0933779F0933509F056C020C0F501AD
:100250008081898342E050E0A40EB51E610101E077
:1002600010E012C0F501C080D180F6FC03C06FEF32
:100270007FEF02C0672D70E042E050E0A40EB51E93
:10028000C6010E947C028C015FE7F52214C0F501D3
:10029000C080D180F6FC03C06FEF7FEF02C0672DF6
:1002A00070E042E050E0A40EB51EC6010E9471024B
:1002B0008C0150E8F52AF3FE07C01AC080E290E0F6
:1002C000B4010E948702EA948E2D90E00817190766
:1002D000A8F30EC0F601F7FC8591F7FE81916F013E
:1002E00090E0B4010E948702E110EA9401501040AE
:1002F0000115110579F7EAC0943611F0993669F5C0
:10030000F7FE08C0F501208131814281538184E0EC
:1003100090E00AC0F501808191819C01442737FD5E
:100320004095542F82E090E0A80EB91E9FE6F92276
:1003300057FF09C050954095309521953F4F4F4F3D
:100340005F4FE0E8FE2ACA01B901A1012AE030E0CE
:100350000E94B302D82ED21840C0953729F41F2D21
:100360001F7E2AE030E01DC01F2D197F9F3661F0EF
:10037000903720F4983509F0ACC00FC0903739F0B1
:10038000983709F0A6C004C028E030E00AC0106128
:1003900014FD146020E130E004C014FD166020E17B
:1003A00032E017FF08C0F50160817181828193817D
:1003B00044E050E008C0F50180819181BC0180E0FB
:1003C00090E042E050E0A40EB51EA1010E94B302ED
:1003D000D82ED2188FE7F82EF122F6FE0BC05EEF72
:1003E000F522D71438F4F4FE07C0F2FC05C08FEEF6
:1003F000F82202C01D2D01C0172DF4FE0DC0FE0114
:10040000ED0DF11D8081803319F499EEF92208C0B9
:100410001F5FF2FE05C003C08F2D867809F01F5FB5
:100420000F2DF3FC14C0F0FE0FC01E1510F07D2C34
:100430000BC07D2C7E0C711A1E2D06C080E290E050
:10044000B4010E9487021F5F1E15C0F304C01E1571
:1004500010F4E11A01C0EE2404FF0FC080E390E025
:10046000B4010E94870202FF1DC001FD03C088E79E
:1004700090E00EC088E590E00BC0802F867891F068
:1004800001FF02C08BE201C080E2F7FC8DE290E048
:10049000B4010E94870206C080E390E0B4010E948C
:1004A00087027A94D714C0F3DA94F101ED0DF11DAF
:1004B000808190E0B4010E948702DD20A9F706C088
:1004C00080E290E0B4010E948702EA94EE20C1F736
:1004D0003CCEF40166817781CB012B96E2E10C944E
:1004E0004103FC010590615070400110D8F78095E0
:1004F00090958E0F9F1F0895FC01615070400190F0
:100500000110D8F7809590958E0F9F1F08950F9337
:100510001F93CF93DF938C01EB018B8181FF1BC075
:1005200082FF0DC02E813F818C819D812817390764
:1005300064F4E881F9810193F983E88306C0E885D2
:10054000F985802F0995892B31F48E819F81019641
:100550009F838E8302C00FEF1FEFC801DF91CF9101
:100560001F910F910895FA01AA27283061F12031D7
:1005700091F1E8946F936E7F6E5F7F4F8F4F9F4F27
:10058000AF4FB1E040D0B4E03ED0670F781F891F75
:100590009A1FA11D680F791F8A1F911DA11D6A0F47
:1005A000711D811D911DA11D22D009F468943F91F8
:1005B000062E000C3019000C000C3019305D319300
:1005C000CEF6CF010895462F4770405D4193B3E0CA
:1005D0000FD0C9F7F6CF462F4F70405D4A3318F061
:1005E000495D31FD4052419302D0A9F7EACFB4E012
:1005F000A6959795879577956795BA95C9F70097CA
:100600006105710508959B01AC010A2E069457956A
:10061000479537952795BA95C9F7620F731F841FC1
:10062000951FA01D08955527002480FF02C0060EC7
:10063000571F660F771F6115710521F096958795F5
:10064000009799F7952F802D08952F923F924F9202
:100650005F926F927F928F929F92AF92BF92CF9252
:10066000DF92EF92FF920F931F93CF93DF93CDB75B
:10067000DEB7CA1BDB0B0FB6F894DEBF0FBECDBFD3
:1006800009942A88398848885F846E847D848C84A4
:100690009B84AA84B984C884DF80EE80FD800C81AD
:1006A0001B81AA81B981CE0FD11D0FB6F894DEBF90
:0C06B0000FBECDBFED010895F894FFCF00
:00000001FF
